:020000040800F2
:10000000F0FF0120C11405087DAD0408059C01081E
:1000100039150508391505083915050800000000CF
:1000200000000000000000000000000081AD040896
:1000300085AD04080000000089AD040809890108A5
:100040003915050839150508391505083915050844
:100050003915050839150508D9B10008E1B10008BE
:10006000E9B10008F1B10008F9B100081DAF0008BE
:1000700031AF000845AF000859AF00086DAF000868
:1000800081AF000895AF0008391505080000000091
:1000900000000000000000000000000001B20008A5
:1000A000F5D000088DD0000805D100087DD00008EB
:1000B000B5D00008C5D00008D5D000087DAA00083A
:1000C000F1BC000885AA0008F5BC00083915050830
:1000D00039150508318801083D8801080000000035
:1000E00009B2000839150508E9B30408000000004A
:1000F000000000000000000000000000A9AF0008A0
:100100000000000039150508E5D00008391505087C
:1001100000000000000000000000000000000000DF
:10012000BDAF0008D1AF0008E5AF0008F9AF000887
:100130000DB00008000000000000000000000000FA
:100140000000000000000000000000008DAD040869
:1001500021B0000835B0000849B0000849880108FE
:100160008DAA0008F9BC0008000000000000000093
:10017000000000000000000000000000000000007F
:100180000000000039150508000000000000000014
:080190003915050839150508B1
:080198008809050001000000C8
:1001A000220201001C010000DC510020C050002090
:1001B0000000000069A40008BC5000201F020800D5
:1001C000100000000C530020FC5200200000000032
:1001D000618E0008F852002018400100380000002D
:1001E0005853002020530020000000000DA40008F8
:1001F0001C5300201B02010010000000A45300202B
:100200009453002000000000358E00089053002019
:100210001212010004000000BC530020B85300205B
:1002200000000000298E0008B453002011020100D4
:1002300008000000CC530020C45300200000000040
:100240001D8E0008C0530020280204000400000096
:10025000DC530020D853002000000000158E000859
:10026000D45300202702040004000000E8530020BB
:10027000E4530020000000000D8E0008E053002031
:100280001A0201003C0000002C540020F053002012
:10029000000000005DA30008EC530020FE010100F7
:1002A00014000000805400206C5400200000000066
:1002B000258D0008685400201D0202000600000081
:1002C0000C480020985400200000000000000000AE
:1002D000945400200400080080000000F849002029
:1002E000A45400200000000000000000A0540020E2
:1002F0000C02010004000000B44A00202855002030
:1003000000000000A98D00082455002019020100FA
:1003100010000000A44A002030550020000000001A
:10032000498E00082C550020FA010100040000004D
:10033000A04A00204455002000000000A18D0008C4
:1003400040550020081203000F000000904A0020D2
:100350004C550020000000004D8D0008485500203D
:100360001C0202001C000000C8470020605500204D
:1003700000000000C1A300085C55002023200100FC
:1003800010000000F44B0020805500200000000009
:1003900061D002087C5500200A9001002400000072
:1003A000344B0020945500200000000075D0020856
:1003B00090550020031201003D000000884C0020F1
:1003C000BC55002000000000E4360608B8550020A7
:1003D000010201000A000000045000200056002025
:1003E00000000000918D0008FC550020FD17010061
:1003F000A000000014500020105600200000000053
:100400005DE003080C5600201310010004000000FA
:10041000B4500020B4560020000000002437060825
:10042000B0560020021001000C000000044B002018
:10043000BC5600200000000028370608B8560020EF
:10044000F701010006000000884A0020CC56002079
:100450000000000034370608C8560020F6210100CD
:100460000C000000184C0020D856002000000000AE
:100470003C370608D4560020F83101000600000081
:100480000C4C0020E8560020000000004837060809
:10049000E45600200612030012000000F04A00207B
:1004A000F45600200000000019940008F0560020C7
:1004B000FD01010024000000124800200C5700201C
:1004C0000000000037670108085700200202010001
:1004D00003000000005000203457002000000000FE
:1004E00000000000305700201A0001000E0000003C
:1004F000784A00203C570020000000004E370608D4
:10050000385700201400010005000000A04800201A
:1005100050570020000000005C3706084C570020B0
:10052000F5C1010074000000884F00205C570020D6
:1005300000000000A1E80308585700201230010015
:1005400010000000F8470020D457002000000000F1
:1005500062370608D057002005300100080000006F
:10056000043200206868002000000000743706088C
:1005700064680020130201000400000030330020F2
:1005800074680020000000007C37060870680020B6
:1005900006100100260000004C3300208468002073
:1005A00000000000B98D00088068002016021500C8
:1005B0003F00000074320020B068002000000000FE
:1005C000718E0008AC6800200E02010002000000DD
:1005D00048AD00205CB10020000000008037060814
:1005E00058B100202F2001002200000064B100203B
:1005F00020AE0020000000008237060860B1002015
:1006000021020100F000000050AB002090AE00205D
:1006100000000000919C030888B100202C00040019
:100620001000000040AB002024B1002000000000BA
:1006300009CF02088CB1002025201E002C010000EB
:1006400014AA0020F8AF0020000000000000000005
:1006500090B100202B00120024000000FCA200201A
:1006600034B100200000000019CF020894B100202E
:100670002700010004000000ACA200209CB1002073
:1006800000000000A437060898B100200C600400A8
:1006900078000000B89E0020A4B1002000000000F7
:1006A00049350208A0B10020031101000A00000032
:1006B000A0A2002020B200200000000015E50308E1
:1006C0001CB20020292014007800000028A200207D
:1006D00080AF002000000000000000002CB20020CD
:1006E000012001000C0000001CA2002034B20020F8
:1006F00000000000A837060830B200200B300100CF
:100700001A00000000A2002044B2002000000000F7
:10071000B437060840B200200E70040070020000DA
:10072000309F002064B2002000000000B1CD02081C
:1007300060B200201E2001000B000000F4A1002088
:10074000D8B4002000000000CE370608D4B4002042
:100750000D1001004C000000A4A1002044AE0020B8
:100760000000000075720108E4B400203840010068
:100770000600000048B50020E8C00020000000008E
:10078000DA370608E4C000203740010028000000E6
:1007900020B90020F4C0002000000000E037060867
:1007A000F0C000201B3001000E000000C8BC00207B
:1007B00020C1002000000000957D03081CC100201E
:1007C0001620010006000000DCBC002034C100201F
:1007D000000000000838060830C100201010010099
:1007E00002000000FCBA002040C100200000000010
:1007F0000E3806083CC10020190001000500000069
:10080000E4BA002048C100200000000010380608AB
:1008100044C10020F90101000400000058C100207B
:1008200054C1002000000000F566010850C10020FE
:100830002D0201000100000074C3002080C30020CD
:1008400000000000000000007CC30020290201001D
:10085000400000006CC1002088C3002000000000A0
:100860001638060884C300200101010004000000BE
:1008700034C30020CCC300200000000000000000B2
:10088000C8C30020000101000400000030C30020A4
:10089000D4C300200000000056380608D0C3002052
:1008A00002010100030000002CC30020DCC3002073
:1008B0000000000039350208D8C300202052010092
:1008C00008000000E8C20020E4C30020000000008F
:1008D0005A380608E0C300202A1201000800000070
:1008E000E0C20020F0C300200000000062380608CB
:1008F000ECC300202B0201000C000000D0C200203D
:10090000FCC30020000000006A380608F8C300207D
:10091000050201000400000064C5002024D8002066
:10092000000000007638060820D800202C020100C4
:100930000400000040C500204CD80020000000004A
:100940007A38060848D800203A1001000C00000050
:1009500080DA00207CEA00200000000080380608D1
:1009600078EA0020233201001400000050EA002041
:100970008CEA0020000000008C38060888EA00207D
:10098000001201000A000000D4F3002060F90020EA
:1009900000000000000000005CF900201F50010072
:1009A0002400000060FB0020800101200000000006
:1009B000A03806087C0101200902010001000000A6
:1009C000544101207C41012000000000C438060889
:0409D0007841012049
:1009D40012010002000000408304205700020102BB
:1009E40003010000040309041A03000000000000CE
:1009F40000000000000000000000000000000000F3
:100A040000000100D8000000000000000500000004
:100A14000600000002000000000000006C05002039
:100A24007868002002000000010000006D8B0008BF
:100A34006805002000000000010000000100000023
:100A44004D8B0008DC0100200000000000000000C5
:100A54000000000000000000000000000000000092
:100A64000000000001000000000000000000000081
:100A74000000000000000000010000000000000071
:100A84000000000000000000000000000100000061
:100A9400000000000300000000000000050000004A
:100AA40005000000D58C0008FD8C0008158D000899
:100AB400198D0008119F00081D8D0008218D000864
:100AC400004C0508657F040869490408ADAA0408B8
:100AD400000000000000000035AC040871AC0408FC
:100AE400000000000000000000000000A949040804
:100AF400318A00083D8A0008C19C0008999C0008BE
:100B0400498A0008DD9C0008F99C00080060024046
:100B1400106002400000000000000000000000001F
:100B2400000B0000000000000000000000000000B6
:100B34000060024028600240010000000000000044
:100B440000000000060C000000000000000000008F
:100B5400000000000060024040600240020000000B
:100B64000000000000000000100D00000000000064
:100B740000000000000000000060024058600240D5
:100B8400030000000000000000000000160E00003A
:100B940000000000000000000000000000600240AF
:100BA400706002400400000000000000000000002B
:100BB400200F000000000000000000000000000002
:100BC4000060024088600240050000000000000050
:100BD40000000000261000000000000000000000DB
:100BE4000000000000600240A06002400600000017
:100BF40000000000000000003011000000000000B0
:100C0400000000000000000000600240B8600240E4
:100C1400070000000000000000000000362F000064
:100C2400000000000000000000000000006402401A
:100C340010640240000000000000000000000000FA
:100C44000038000000000000000000000000000068
:100C5400006402402864024001000000000000001B
:100C64000000000006390000000000000000000041
:100C740000000000006402404064024002000000E2
:100C84000000000000000000103A00000000000016
:100C940000000000000000000064024058640240AC
:100CA400030000000000000000000000163B0000EC
:100CB400000000000000000000000000006402408A
:100CC4007064024004000000000000000000000006
:100CD400203C0000000000000000000000000000B4
:100CE4000064024088640240050000000000000027
:100CF4000000000026440000000000000000000086
:100D04000000000000640240A064024006000000ED
:100D1400000000000000000030450000000000005A
:100D2400000000000000000000640240B8640240BB
:100D3400070000000000000000000000364600002C
:100D44000000000000000000000000001F00000080
:100D54001C0000001F0000001E0000001F00000017
:100D64001E0000001F0000001F0000001E00000005
:100D74001F0000001E0000001F0000000068214C3E
:100D8400010100000001010100FF0000644B05089F
:100D9400984B0508CC4B0508FFFFFFFF0800000037
:100DA4000600000005000000C70000000600000067
:100DB40005000000814D0408854D0408894D040890
:100DC400954D0408994D04088D4D0408914D04086F
:100DD400FFFF0000FFFFFFFF01000000A1890108E1
:100DE400FFFFFFFF20DD05080000080205030300E4
:100DF4000000000028DD05080100080205040300C6
:100E04000000000030DD05080000080205030300AF
:100E14000000000038DD0508010008020504030095
:100E240000000000081A06080200FE010110030079
:100E34000000000030CC0508030014020003000089
:100E44000000000040DD050804001F020200080045
:100E54000000000048DD050805001F02020108002B
:100E640000000000010100007D000000CCDD050849
:100E740030E105080000000021D00108A08601002F
:100E840004000000CCDD050808130608000000007B
:100E9400D5850108E80300000400000010130608CB
:100EA4000000000000000000193D02087D00000061
:100EB400FF000000ECCC050800000000000000006A
:100EC400015902087D000000FF000000EC23060821
:100ED40000000000000000003D0B03087D0000003E
:100EE400FF000000C4E1050800000000000000004D
:100EF400A1700108E803000003000000D0CE05083B
:100F04000000000000000000C5F6020810270000E1
:100F1400030000003CDD050800000000F5CF0208D6
:100F240029AA01085F76000005000000B0E3050867
:100F340000000000000000003970010810270000C4
:100F44000200000018130608000000000000000062
:100F540091680108E8030000050000002413060856
:100F6400000000000000000099370208204E000035
:100F74000300000034130608000000000000000015
:100F8400594F0208204E00000300000044130608D5
:100F940000000000000000007DA30108400D0300D4
:100FA40003000000A8DE05080000000000000000A7
:100FB400DDA70108102700000200000058E1050821
:100FC4000000000000000000B9B003081027000072
:100FD4000300000054130608000000000000000095
:100FE400E58A010810270000030000003CCB050837
:100FF4000000000000000000E16901081027000063
:1010040002000000B8E30508000000000000000032
:10101400B9720108A00F0000020000006013060866
:101024000000000000000000DD1504081027000087
:1010340002000000B0DE0508000000008BE0030899
:10104400D92704088545010002000000FCCA0508F0
:101054000000000000000000DDE20308102700008B
:101064000200000044E10508000000000000000048
:10107400C189030850C30000020000006C13060875
:101084000000000000000000890B0408400D03006C
:1010940001000000741306080000000000000000B6
:1010A40009CC030850C300000300000080130608A5
:1010B4000000000000000000B934020840420F00A4
:1010C400010000008C13060800000000000000006E
:1010D4001587010850C3000001000000981306089A
:1010E40000000000000000009D20040810270000FC
:1010F400020000000000803F00000000000000002B
:10110400000000000000803F00000000000000001C
:10111400000000000000803F00000000000000000C
:1011240000000000FFFFFFFFFFFFFFFFA1770108A2
:10113400000000000000000000000000B19501085C
:10114400000000000000000000000000000000009B
:1011540038D80020080000000000000028D8002033
:101164000800000001007EFF7EFFE2FFE2FF0000B6
:10117400FFFFFFFF01F11F3F0000FA430000FA43A5
:101184000000803F0000000000000000000000009C
:10119400000000000000000000000000000000004B
:1011A40000000000000000000000803F60FECD0051
:1011B40099A70108000000000000000000000000E2
:1011C40000FF00000000000000000000697903082F
:1011D4000000000000000000348705080100E00161
:1011E4000000000000000000000000007C8C0508E6
:1011F400000000000000000000000000348D05081D
:10120400000000000000000000000000E08C050861
:101214003DC303080000000000000000E08B050847
:10122400215404080000000000000000548B05084D
:101234007192030800000000000000000C8B0508F8
:10124400399803080000000000000000ECA1050824
:1012540001000000FA00000001000000010000008D
:1012640000000000000000003192030886F3002013
:10127400FFFFFFFF012D202D2D202D2D2D2D202DA5
:101284002D2D000000000000000000000000000000
:10129400000000000101FF00FFFFFFFF0000803F8E
:1012A40042EC002088136F170100000044EC00207A
:1012B40088136F170000000046EC002088136F1796
:1012C4000100000048EC002088136F1700000000A4
:1012D4001979030800000000000000007488050864
:1012E400CEF3002001000000C88805084BEC002064
:1012F40001000000D4880508F0EC00200200000082
:10130400DC880508417903080000000000000000A3
:10131400E88805080000000000000000000000004C
:101324003C890508000000000000000000000000E7
:10133400AC89050840EC002002000000F48905088F
:1013440030F80020E0150C1700000000C012000067
:1013540076F90020000000000000000074F900206D
:10136400000000000000000072F9002000000000EE
:101374000000000070F900200000000000000000E0
:101384006EF9002000000000000000006CF900204D
:101394000000000000000000140B0020000000000A
:1013A400000000004AEC002003000000E489050866
:1013B400000000000000000000000000008A050892
:1013C4007AF90020E0150C17000000007CF90020D9
:1013D40002000000F48905082D202D2D202D2D2D2F
:1013E4002D202D2D2D2D00000000000000000000F8
:1013F40000000000000000000000000000000000E9
:1014040000000000388A05087EF900209CFF2C01AA
:10141400000000000AF80020E0150C17000000008E
:1014240074F7002002000000F48905082D202D2DFA
:10143400202D2D2D2D202D2D2D2D00000000000000
:101444000000000000000000000000000000000098
:101454000000000000000000708A0508CBEA0020AC
:101464000AFF0100CAEA002000FF0100C9EA0020C7
:1014740000FF0100C8EA002000FF0100C7EA0020C5
:1014840000FF0100C6EA002000FF0100C5EA0020B9
:1014940000FF0100C4EA002000FF0100B4DA0020CC
:1014A40000000000C800000000000000A8DA0020CE
:1014B4000000D007000000003970030875700308AD
:1014C400000000007C8D0508E4EA002005320100DC
:1014D400E2EA0020E803D00701000000E0EA00206F
:1014E400E803D00701000000DEEA0020E803D0078B
:1014F40001000000DCEA0020030F0100DAEA00200A
:101504001900F40101000000D8EA00200500F401EC
:1015140001000000D6EA0020003C0100D4EA0020CB
:101524000000B80B01000000D2EA002002FF010015
:10153400D0EA00203200C40901000000CFEA0020F4
:1015440000640100CEEA002002000000445D0508AA
:10155400CCEA00201400E8030100000032EB002074
:1015640000C8010031EB00200050010030EB0020E6
:10157400005A01002EEB002002000000405905082B
:101584000C1F0608141F0608E6EA00200000B80B2A
:1015940001000000E8EA002001C80100A17103086D
:1015A400C571030800000000188E0508CCF3002064
:1015B4000100C40900000000CAF300200100C409AE
:1015C40000000000C8F300200100C409000000006E
:1015D400C6F300200100C40900000000C2F300208B
:1015E4000100C40900000000C4F300200100C40984
:1015F40000000000C0F300200100C4090000000046
:10160400BEF300200100C4090000000021EC00200A
:1016140000C8010020EC002000C801001EEC0020DE
:101624000000FFFF0A0000001CEC00200100C800BD
:10163400010000001AEC0020320030753200000076
:1016440018EC0020E2FF14000500000016EC002056
:101654007EFF14000500000014EC002005002C019E
:101664000500000012EC0020055A050027EC0020BC
:1016740000FF010025EC002002000000480D0020BE
:1016840023EC002003000000608E050826EC0020F7
:1016940000FF010024EC002002000000480D00209F
:1016A40022EC002003000000608E050800ED0020FD
:1016B400FF7F0100FCEC002000000000FFFFFFFFA3
:1016C40001000000F8EC002000000000FFFFFFFF15
:1016D40001000000F4EC002000000000FFFFFFFF09
:1016E40001000000B17003080D7103080000000040
:1016F400708E0508BEEA0020EE02CA080100000050
:10170400BDEA002000C8010064000000BCEA00201B
:1017140002C8010064000000BBEA002002000000CF
:101724006C5A05083EEC00200000803E05000000D5
:101734003CEC002080C1803E050000003AEC002013
:101744000083007D0500000038EC002080C1803E4D
:101754000500000036EC002000FF010034EC0020FE
:101764006400F4010100000032EC00206400F40184
:101774000100000030EC00206400F40101000000CE
:101784002EEC002004000000005D05082DEC002074
:1017940002000000F45C05086BEB00200D00000063
:1017A400F458050868EB00200064010066EB002093
:1017B400320010270A00000065EB00200D00000035
:1017C400F458050864EB00200D000000F4580508E7
:1017D40063EB0020020000002C5905080000000003
:1017E40000000000000000007C8F0508BAEA002019
:1017F40053000000B05A0508B8EA002003000000B6
:10180400B48F0508B9EA002004000000145D05083F
:1018140061EB002003000000C48F050860EB00208A
:1018240003000000C48F050854EB0020000A0100E7
:1018340052EB00200000E8030100000050EB002000
:101844000000E803010000004EEB0020000A010044
:101854004CEB00200000E803010000004AEB0020EC
:101864000000E8030100000042EB0020C800E80388
:101874000100000048EB00201400FA000100000001
:1018840046EB00200100E8030100000044EB0020C7
:101894000005010040EB002002000000F05905089B
:1018A4003EEB00200000F401010000003CEB0020AE
:1018B4000000F401010000003AEB00200000F401F4
:1018C4000100000038EB00200000F40101000000DA
:1018D40036EB00200000E8030100000034EB002098
:1018E4000000E803010000001DEB00201964010062
:1018F4001CEB002002000000E459050811EB002055
:101904000064010010EB00200064010018EB0020CB
:10191400006401000A00000017EB002000640100CD
:101924000A00000016EB0020006401000A00000019
:101934001BEB002000FF01000A0000001AEB00204E
:1019440000FF01000A00000019EB002000FF010065
:101954000A00000015EB002001FF01000A0000004E
:1019640014EB002001FF01000A00000013EB00202B
:1019740001FF01000A0000005EEB00200000F401FA
:10198400010000005CEB00200000E80301000000FF
:101994005AEB00200000E8030100000058EB00208F
:1019A4000000E8030100000056EB00200000E803FB
:1019B4000100000084F30020E803D0070A000000BF
:1019C40082F30020006401000A00000081F300207B
:1019D4000096010078F3002000C8010077F300208E
:1019E4000064010076F300200064010075F3002018
:1019F4000064010074F300200064010073F300200C
:101A0400FF08010072F3002001640100A5720308BD
:101A1400E972030800000000D48F05087BF300205E
:101A2400013201007AF3002001000000B8590508D2
:101A340079F3002004000000C059050871F3002068
:101A44000096010070F30020006401006FF3002091
:101A540000FA0100640000006EF300200AFA01009D
:101A64006DF300200AC801006CF30020006401003B
:101A74006BF30020006401006AF300200A5A01009D
:101A840069F3002000C8010068F3002000C80100C9
:101A94007EF300200032010080F3002000140100D6
:101AA4007FF30020005F01007DF3002004000000AC
:101AB400C05805087CF30020006401000A000000FF
:101AC4000BEB00200AC805000A0000000AEB002006
:101AD40001000000D45D05080DEB00200AC80500D4
:101AE4000A0000000CEB002001000000D45D050892
:101AF40002EB002000C805000A00000009EB0020EA
:101B040000C805000A00000003EB002000C805001F
:101B14000A00000004EB002000C805000A000000D1
:101B240007EB002000C805000A00000008EB0020B5
:101B340000C805000A00000006EB002000C80500EC
:101B44000A00000005EB002000C805000A000000A0
:101B540001EB0020020000009058050866F3002005
:101B64000000D0070100000061F3002000C801005C
:101B740060F3002000C801005FF3002000C80100EA
:101B840064F300200000D007010000005EF3002091
:101B940000C801005DF3002000C801005CF30020D0
:101BA40000C8010062F300200000D007010000001B
:101BB4005BF3002000C801005AF3002000C80100B4
:101BC40059F3002000C80100102C06080000000092
:101BD400000040F900201C2C060807080000000043
:101BE40088130020242C0608070800000000801336
:101BF40000202C2C060807080000000078130020A1
:101C0400342C06080808000000006C1300203C2C4B
:101C1400060807080000000064130020442C06088E
:101C24000708000000005C1300204C2C060807087D
:101C34000000000054130020542C0608080800007B
:101C44000000481300205C2C060807100000000068
:101C540040130020642C060807100000000038130D
:101C640000206C2C06080710000000003013002030
:101C7400742C060808100000000024130020981C8F
:101C84000608010000000000000000000000000041
:101C9400100000000000000000000000697103084B
:101CA400857103080000000044900508DD750308F1
:101CB400ED750308899903089890050871EB0020D5
:101CC400005A010070EB002000C801006EEB0020F8
:101CD400E803D0070100000000000000000000003D
:101CE4001D950308349105082CEC00200300000026
:101CF400805805082BEC0020000301002AEC00208A
:101D04000003010081760308D57603080000000073
:101D14007C9105082977030869770308000000000F
:101D24002492050869760308B199030800000000AD
:101D3400A492050828EC0020010301001D7A030881
:101D4400457A0308000000005C960508A56F0308A7
:101D5400C56F030800000000DC960508E977030856
:101D640049780308000000004C9705088D750308A6
:101D740069BC03080000000004980508AD9303083B
:101D84006B6F030800000000AC980508E5740308B5
:101D9400000000000000000048990508A57303082E
:101DA4001174030800000000AC9905082D730308A2
:101DB4006973030800000000649A0508ADD903089C
:101DC4007172030800000000F09A050857F3002020
:101DD4000300000030F9002075740308B17403088F
:101DE40000000000D09B0508F5D9030835970308C7
:101DF40000000000409C0508E97103081D960308D3
:101E040000000000009E050851D90308DD95030871
:101E1400000000009013002058F30020030000008D
:101E2400ECF8002009760308397603080000000066
:101E34000C9F0508918903080000000000000000C1
:101E44007C9F0508B1770308CD99030800000000C2
:101E540018A00508000000000000000000000000B9
:101E6400B4A00508C5D80308A9950308000000001C
:101E740034A105080000010101AA5507010000145E
:101E8400AA550501000008FF0101AA550902000036
:101E940000AA5503009F000001000000AA550B0191
:101EA4000000AA5505010000FF0000000100000029
:101EB400FF00000009024300020100C032090400CF
:101EC40000010202010005240010010524010001A3
:101ED400042402020524060001070582030800FF0A
:101EE40009040100020A0000000705010240000085
:101EF400070581024000000009026400030100C0DC
:101F0400320904000001030000000921110100014D
:101F14002236000705830309000A080B01020202A6
:101F2400010009040100010202010005240010015E
:101F34000524010002042402020524060102070507
:101F440082030800FF09040200020A0000000705DA
:101F54000102400000070581024000000902200040
:101F6400010104C0320904000002080650050705F7
:101F7400810240000007050102400000010000004A
:101F840012010002EF0201408304563200020102F2
:101F940003010000120100020202004083044057C2
:101FA400000201020301000004030904010100000E
:101FB400B01A0020601B0120040000000100000092
:101FC400E15B0408000000000000000000000000C5
:101FD4000000000000000000AC1A00200000000017
:101FE40004000000010000006992040800000000E1
:101FF40000000000000000000000000000000000DD
:1020040086000000C8170020000000000400000043
:1020140001000000E5910408000000000000000039
:10202400000000000000000000000000A400000008
:10203400000000000000000000010000204E00002D
:102044000000000000000000B41A0020641B0120FE
:102054000400000001000000855B0408000000008B
:10206400000000000000000000000000000000006C
:102074009700000038180020000000000300000052
:1020840001000000D15B0408000000000000000013
:102094000000000000000000000000001B00000021
:1020A400641800200000000003000000000000008D
:1020B4000000000000000000000000000800000014
:1020C40001000000055C040800000000000000009E
:1020D400000000000000000000000000A81A00201A
:1020E4005C1B01200400000001000000F1940408BE
:1020F40000000000000000000000000000000000DC
:1021040000000000A41A00200000000004000000E9
:1021140001000000699204080000000000000000B3
:10212400000000000000000000000000A01A0020D1
:102134000000000002000000000000000000000099
:102144000000000000000000080000000100000082
:10215400155C0408000000000000000000000000FE
:1021640000000000000000009C1A00200000000095
:10217400040000000100000069920408000000004F
:10218400000000000000000000000000000000004B
:1021940005010905A101A100050109300931093230
:1021A400093309350934093609371581257F75083E
:1021B40095088102050919012908150025019508CA
:1021C40075018102C0C0000009022200010100E083
:1021D4003209040000010301020009211101000178
:1021E4002236000705830309000A0000000918507D
:1021F40006000000D007000002040C00010718606C
:1022040007000000A00F000003040E000205187070
:10221400070000000A1A000004040C0003021880DE
:1022240007000000204E000005020C00000997FF83
:102234008106C409C40903008813010794FFE40C50
:10224400B80BC40906008813020590FFEF16AC0D05
:10225400C4090A00881303028DFF2E2AA00FC409A3
:1022640000008813010101FFFF000000F4010000D9
:102274000000000000000000000000000100000059
:10228400000000000000000000000000000000004A
:10229400010000000000000000000000010203042F
:1022A4000102030406070809D9790408757A0408A9
:1022B400A974040891480408297E04087548040890
:1022C4005D480408A1480408B1480408000000005F
:1022D400000000008300FFFF1A0000008200FFFFDF
:1022E4001D0000008200FFFF170000001500000021
:1022F400197F040815490408097E04080000000039
:10230400454904084D7F0408F1730408C97304089F
:10231400000000000000000039490408514D040881
:10232400754D0408C9A90408ADA90408E5A9040861
:1023340001AA04081DAA0408797E0408F1480408C7
:10234400017C040800000000C14804081972040854
:10235400BD720408A173040800000000000000001E
:10236400E5480408FF000000000000000000000031
:102374000102030406070809441B002000000000B2
:102384000000000068000000D00000000000000011
:102394000000000000000000000000000000000039
:1023A4000000000000000000000000000000000029
:1023B4000000000000000000000000000000000019
:0823C400000000000000000011
:10800000074BD0F8E4105B68D0F8F0205B1A9A4276
:10801000B8BFC0F8F030012380F81C310020704751
:10802000001000E0B54B00EB8002F0B503EBC2049A
:1080300053F832205268B2F814C01CF0010F4FEA16
:10804000800166D15FFA8CFE1EF0020F3CD0BFF3B8
:108050005F8F257F012DEEB200F0C380148BBFF33C
:108060005F8F0C1803EBC404257F022D00F0DA802B
:108070000C1803EBC404257F032D06D1A47F24B183
:1080800093F87940002C40F0DC809488A4B244F44A
:108090008064948093F9784001EB000C03EBCC0CE6
:1080A0009CF81CC00CF1010CA4450CD1002483F8F1
:1080B000794093F87A40002C40F0AD80084403EBFF
:1080C000C00000234376F0BD1EF0040F93F97850F2
:1080D00055D11EF0400E00F0BD80168A676AF6B2D8
:1080E0007E55EFB27D1C6DB294F81CC083F87850B9
:1080F000EE1CB4452C4600F01A810E1803EBC606A0
:10810000367FB542C8D102377FB283F878703C46DB
:10811000C2E7B2F800C02CF4006C4FEA0C4C4FEAF6
:108120001C4CA2F800C0B2F800C01FFA8CFC4CF442
:10813000806CA2F800C0A57F002683F87860002D2F
:1081400041D093F87950002D3AD0012483F879403A
:108150000C1803EBC404247F022C04D11488A4B2AD
:1081600044F4006414800C1803EBC404A47E44F0AF
:1081700001041482014403EBC1031B7FF0BDA77F00
:10818000012683F87A6093F87960002F7CD0002E66
:108190007DD10C1803EBC404647F002C00F0A48094
:1081A0006C1C65B2148883F87850A4B244F400744F
:1081B0001480B2F800C01CF4807FFAD12C466BE723
:1081C000E47EFF2CC1D00C1803EBC404A57E05F09F
:1081D000FE051582E27EFF2ACCD0FF2283F87820AC
:1081E000C8E7A47F002C3FF439AF93F87940002C06
:1081F0003FF434AF148824F480642404240C1480E5
:10820000BFF35F8F148B148883F87A60A4B244F4B0
:108210000074148039E7948824F440742404240CF6
:1082200094804BE7A47F002C3FF422AF93F8794071
:10823000002C3FF41DAF148824F480642404240C23
:108240001480948824F480642404240C948093F98A
:10825000784021E71FFA8CF63706AFD56E1C6DD03B
:10826000266A765DF6B21682267F01356DB2AE4281
:1082700083F878502C467FF40FAF958825F48065FD
:108280002D042D0C958007E7002E82D088E794F806
:108290001CC0D4F824E0EEB2771CBCF1020F7FB210
:1082A0002ED9B2F800C02CF4806C4FEA0C4C4FEA87
:1082B0001C4CA2F800C0B2F810C05FFA8CFC0EF89B
:1082C00005C0023675B2666A148883F87850A4B285
:1082D00044F400741480148AE4B2F4559488A4B26F
:1082E00044F48064948064E71488A4B244F48074F5
:1082F0001480012483F879405BE700BF901B0020C5
:10830000B2F800C01FFA8CFC4CF4007CA2F800C04C
:10831000B2F810C05FFA8CFC0EF805C0033675B2D7
:10832000666A148A83F87850E4B2F45541E7968877
:1083300026F480663604360C9680DEE6E57E83F809
:1083400078E0EDB21582A57F1DB9247F002C7FF463
:1083500011AF948824F480642404240C948009E7E9
:108360001B4B016803F57D7C02E02C3363452CD068
:108370001A688A42F9D170B593F804E042799645BB
:108380000BD02C33634505D01A688A42F4D02C33C5
:108390006345F9D14FF0FF3070BD9E46C468DEF8EA
:1083A0000C50A5424FF0000208D00132032A0EF112
:1083B0000C0EE6D0DEF80C50A542F6D1DEF81050D7
:1083C0000669B542F1D150B270BD4FF0FF30704731
:1083D0009C320508002A4FEA014C30B503460ABF1B
:1083E000E6468E468C4600F1C005002419689A685E
:1083F00041EA0C0142EA0E029A60C3E900140C3310
:10840000AB42F3D1D0F8C030C0F8C44043EA0E0309
:10841000C0F8C030C0F8C84030BD00BF83691969DA
:10842000B3F80CC00A6830B49C6822F001022468DA
:108430000A60A28992B222EA0C02A281027D00683F
:108440001F2A06D94568203A082494402C4246D079
:10845000FEE70568082494402C42F9D1202404FA50
:1084600002F28260274A92F87B20002A35D01A7ED9
:10847000012A39D0D3F8F4200132C3F8F420EFF305
:108480001181502282F3128858685C6C026822EADB
:1084900004029C6C2243C9B2026081F31188D3E9C3
:1084A0000C401A6999681D6C096814605061D3E921
:1084B0000E40546090600024B3F8A800D5604C6270
:1084C000C86210680124204310601C7683F8F140D4
:1084D0008A899B8913439BB28B8130BC70472024CF
:1084E00004FA02F2C260BDE7002283F8F120D3F85B
:1084F000F8000A68013022F00102C3F8F8000A60AF
:10850000EBE700BF901B002010B40C4CE36F002B76
:1085100011DD002004F1800C0146DCF8A03003F1ED
:10852000C00259600C339342FBD1E36F01308342A8
:108530000CF5807CF1DC5DF8044B7047901B00204B
:10854000704700BF024B03EB401393F89D04704744
:10855000901B00204368B0F8502010B41A83EFF34A
:108560001182502383F312884168446C0B6823EA1C
:108570000403C46C2343D2B20B6082F31188D0E9A8
:1085800007418268036912681C605961D0E909419A
:108590005C60C46A9960B0F86010DC600023D1624E
:1085A0005DF8044B0376704710B4037D02681F2BFF
:1085B00009D95468203B202101FA03F31C4215D14C
:1085C0005DF8044B70471468202101FA03F31C4244
:1085D000F6D00D494068002481F8804501685DF8B7
:1085E000044B21F001010160936070470649406827
:1085F000002481F8804501685DF8044B21F00101F9
:108600000160D360704700BF901B00200C2911D877
:10861000DFE801F0231010101910101011101010C5
:108620000700838B23F400631B041B0C43EA022323
:108630009BB283837047838B23F008031B041B0CBE
:108640001A4382837047038B23F400631B041B0CC3
:1086500043EA02239BB203837047038B23F0080392
:108660001B041B0C1A430283704700BF704700BFF6
:108670000B4890F8B81589B101EB4101002310B403
:10868000490000F5B8601C4650F82320063302B1BB
:1086900014608B42F8D15DF8044B7047704700BFFF
:1086A000901B00200B4890F8B81589B101EB4101EF
:1086B000002310B4490000F5B8601C4650F8232090
:1086C000063302B114609942F8D15DF8044B70474B
:1086D000704700BF901B002001207047034B00EB48
:1086E000400003EBC00393F8D1057047901B0020B6
:1086F00000EE100AB8EE400A704700BFBCEEC00A98
:1087000010EE103A98B27047F0B4037D85690268A4
:108710001F2B4CD95468203B202199400C4237D064
:10872000D16010219940D1605168D940CE075FD403
:10873000EFF31183502282F312882A6C1168C90763
:108740001DD4516889B279B9D5E90964A64213D01C
:10875000AF692744D760A4B24FD9341BA4B2546088
:108760000021AE6285F86410116841F00101DBB2AE
:10877000116083F3118805E0012285F86420DBB2E3
:1087800083F31188037D02681F2B194615D9203BFE
:10879000506808219940084200D0D16050680421F7
:1087A00001FA03F3184200D0D360F0BC704716689A
:1087B00020249C4026420ED11946106808238B4085
:1087C000184200D09360106804238B401842ECD00C
:1087D000F0BC9360704710219940946091601168DB
:1087E000D940CC07A4D5012101FA03F393609FE798
:1087F000012101FA03F3D3609AE70E462969091BA8
:1088000089B25160ACE700BF10B50C2935D8DFE85C
:1088100001F0913434346334343407343434350063
:10882000038C5488B2F80CE023F480731B041B0CF7
:108830000384038CB0F804C0818B21F073014EEAED
:10884000040E0904148823F40073090C1B0421434B
:10885000764C1B0C43EA0E23A0421FFA8CFC9BB201
:1088600000F0948004F58064A04200F08F8092684C
:10887000A0F804C08183C263038410BD038C5488B4
:10888000B2F80CE023F480531B041B0C0384038C0C
:10889000B0F804C0818B21F4E6414EEA040E0904CD
:1088A000148823F40053090C41EA04211B045F4C93
:1088B0001B0C43EA0E33A0421FFA8CFC9BB289B218
:1088C0007ED004F58064A0427AD09268A0F804C0FB
:1088D00081830264038410BD038C5488B2F80CE0D9
:1088E00023F010031B041B0C0384038CB0F804C09A
:1088F000018B21F4E6414EEA040E0904148823F0AA
:108900002003090C41EA04211B04484C1B0C43EAD8
:108910000E13A0421FFA8CFC9BB289B26CD004F5F6
:108920008064A04268D09268A0F804C0018382638A
:10893000038410BD038C5488B2F80CE023F00103CB
:108940001B041B0C0384038CB0F804C0018B21F0C2
:1089500073014EEA040E0904148823F00203090C83
:108960001B042143314C1B0C43EA0E03A0421FFAA7
:108970008CFC9BB22CD004F58064A04228D0926875
:10898000A0F804C001834263038410BDD489B2F807
:1089900010E023F4006343EA0423548A2CF4405C7F
:1089A0004EEA040E4CEA0E1C94884FF6FF3E03EA92
:1089B0000E0E4EEA042E1FFA8CFC1FFA8EF356E7B9
:1089C000148A2CF4804C4CEA841C1FFA8CFC7CE743
:1089D000D489B2F810E023F008032343548A2CF41E
:1089E000407C4EEA040E948823F004034CEA0E0CFB
:1089F0001FFA8CFC2343C2E7D489B2F810E023F0BD
:108A0000800343EA0413548A2CF4406C4EEA040EAB
:108A10004CEA8E0C94884FF6BF7E03EA0E0E4EEAA7
:108A2000041E1FFA8CFC1FFA8EF37CE70000014045
:108A3000122301480B80704798010020042301484D
:108A40000B807047AC0100201C48D0F8E837D0F804
:108A5000EC2710B59B184FF01A040C8001D1184870
:108A600010BD174AD0F8EA0702F1100411464FF082
:108A7000000E4FEA137CB3F1204F34BF0CF1300CE1
:108A80000CF1370C81F802C081F803E00231A142F9
:108A90004FEA0313EDD102F108040021030FB0F1F6
:108AA000204F34BF303337339374D1740232A24233
:108AB0004FEA0010F2D1024810BD00BF00F0FF1FC6
:108AC000B001002082B01D4B1D490022019201938C
:108AD000019B04330193019B1A688B6803F00C031C
:108AE000042B02D0082B05D0164A174BC3F880265A
:108AF00002B0704748684B68400203F03F0314D44B
:108B00004A681049B1FBF3F3C2F3881203FB02F287
:108B10000B4B5B68C3F3014301335B00B2FBF3F221
:108B2000094BC3F8802602B070474968B2FBF3F2E4
:108B3000C1F3881303FB02F2EAE700BF50280040AC
:108B4000003802400024F400901B002001234377EA
:108B50000020704708B503468269006BD96A024459
:108B60009A6101B18847002008BD00BF436A1B68B5
:108B70001B6A5B685B78024613F0010008BF507700
:108B8000704700BFC2628161704700BF704700BF7D
:108B9000043070470D4B93F88826D3F884160244AE
:108BA000D2B283F8882693F8882601441206C3F8C7
:108BB000841605D593F8882682F0800283F88826EB
:108BC000034B012283F83220704700BF901B002026
:108BD000980100202DE9F047144FD7F88C56ED0A84
:108BE0001ED00026B14607F2C468D7F89036104868
:108BF000D3F828A0C7F8BC96741964101023424615
:108C0000E102D0470F280BDD0A4B03F1100153F8A6
:108C1000042B013207D18B42F9D12546AE42E4DB69
:108C2000E802BDE8F087661CF8E700BF901B002053
:108C30002022002054220020084B10B5D3F8D4364F
:108C400003440C46187E0FF077FB18B18288036846
:108C50000CB11A8310BD5A83FCE700BF901B0020A3
:108C600008B51D200FF068FB08B183794BB11E20B9
:108C70000FF062FB08B1837903B108BD5523C380AF
:108C800008BD5523C380F2E710B5114CD4F8D8269F
:108C9000D4F8DC36D31A322B12D8D4F8E03693420B
:108CA00000D310BDD4F8E43633B119689B88486905
:108CB000034214BF4B830B833232C4F8E02610BD4D
:108CC000002108460FF068FC0023C4F8E03610BD10
:108CD000901B0020084A92F8F036D2F8E42603F000
:108CE00001031AB19188126813B9118300207047EB
:108CF00051830020704700BF901B00204FF400708C
:108D0000034B1060D3F800370B600020704700BFA2
:108D1000901B002000207047012070470120704701
:108D20000020704701214FF47F4200234FF0FF0CD9
:108D30000172028242F2010142F2011280F812C075
:108D400001808280C0F80A30C38170470F4B4FF614
:108D5000FF7200B5A0F803200281A0F80D2003F1F6
:108D6000120E13F9012CB3F800C002EB8202063395
:108D700020F802C0811813F8042C8A7033F8032CF1
:108D8000A1F803207345ECD15DF804FB913605088A
:108D900000234FF4007203808370A0F80320704713
:108DA00040F21E230380704742F601410222002355
:108DB00001808270C3707047104A1149114B826064
:108DC0004FF4F07C40F2067210B4A0F800C00E4CD4
:108DD00001624FF00E0C0221A0F81920C0F81530E6
:108DE0004FF080720623C46180F824C05DF8044B04
:108DF0004171C0F811208370704700BF2A262728D0
:108E0000D007E8030203040526022E0400230360B2
:108E1000704700BF00230360704700BF00224FF07F
:108E20000133026043607047014B0360704700BF2D
:108E30002829FFFF002306214FF47A720170426057
:108E400083600373704700BF044AC0F809201321F0
:108E50004FF478530170A0F80D3070471F0322299A
:108E60004FF0FF33036043608360C360704700BF0F
:108E700040F2133C4FF49571A0F800C0A0F8031025
:108E80004FF4937C40F22711FF22A0F806C0A0F80F
:108E900009104FF4947C4FF4047100238270A0F801
:108EA0000CC0A0F80F1040F2123C40F219110275EC
:108EB0004FF48D7243710372C37283734374A0F8CD
:108EC00012C0A0F81510C37502838376704700BFE7
:108ED000704700BFD0ED007AD0ED016A30EE677ABE
:108EE000E6EE877AB0EE670AC0ED007A704700BF01
:108EF000D0ED017AD0ED026A30EE677A90ED000A8B
:108F0000E6EE877A37EEC07AC0ED017AA6EE870AE0
:108F100080ED000A704700BF90ED017AD0ED036A42
:108F2000D0ED027A30EE470AA6EE807A90ED000A84
:108F300080ED017A37EE676AE6EE867A37EEC07A20
:108F4000C0ED027AA6EE870A80ED000A704700BFE6
:108F5000164AD0F8E0305268D0F8D81010B5044660
:108F600073B1501A83420BDC94F8D030C4F8D82087
:108F7000012B10D0D4F8D4300133C4F8D43010BD54
:108F8000D4F8E430C4F8D8200B44C4F8DC3094F8AA
:108F9000D030012BEED104F1E801201D0EF0F0FEDF
:108FA000D4F8D4300133C4F8D43010BD001000E040
:108FB000F0B5224C224A234B95B0054604F13C0003
:108FC000CDE90002049304F140000023CDE905033C
:108FD0001D4A09920B9304F134020E930F931093E0
:108FE000139311936B6A2F7F0A9218680123022250
:108FF0008DF80C3007938DF820308DF834308DF8D3
:1090000048303B1D02920E460C9347F0B3FB97B1DC
:10901000330E84F835303634320C330A22706370E4
:10902000A670686A69460EF0ABFE6B6A186847F076
:10903000A1FB15B0F0BD3534EEE700BF980100206C
:10904000C02200206D8B00084D8B000810B504462F
:1090500094B050220649684649F0EEFE606A6946BF
:109060000EF08EFE636A186847F084FB14B010BDE2
:10907000A43605082DE9F0410446406A00681E4602
:109080000F46904647F076FB237FA069002B3DD02A
:10909000274D030E85F84530052205F146039870EB
:1090A000EA67020C000A58701A703B68C5F88830ED
:1090B0000020D8F80030C5F89030012E2363C5F8A1
:1090C000A00028D0022E1FD1D8F80420C5F898009F
:1090D000796885F89400C5F89C1013441549C5F8C3
:1090E000A4200120236385F8A800C5F8AC10124B1A
:1090F000627F606AA3F11401002A08BF19460EF0CE
:109100003FFEE36A7BB1206BBDE8F0810B4B04228C
:10911000A3F14505C3E7074B85F89460C5E9263000
:10912000C5F8A400E3E7636A186847F023FBEAE7A1
:1091300098010020558B0008F8010020DD01002077
:1091400000B583B081610192049A0093C262012349
:109150006A4601A9FFF78EFF03B05DF804FB00BF6C
:10916000F8B50C4B1D685A69154005405D617DB12D
:10917000094F0126B5FA85F4C4F11F0407EB8403F7
:1091800006FA04F4D3F8340703689847A543F1D1ED
:10919000F8BD00BF003C0140901B00202DE9F843C2
:1091A000038AB0F80C801FFA88F818EA030829D05F
:1091B00005460E464FF00047B8FA88F327FA03F247
:1091C000D24391B21B3B298208EA0208042B16D82D
:1091D000DFE803F0352C231A0300B36A002B37D0E5
:1091E00003F1FF3900231FFA89F9B362746A34B1BD
:1091F00023682046494698476468002CF8D1B8F1A6
:10920000000FD9D1BDE8F8837068696B036889B233
:109210009847B8F1000FCFD1F4E7B068A96B0368A5
:1092200089B29847B8F1000FC6D1EBE7F068E96B57
:10923000036889B29847B8F1000FBDD1E2E7306901
:10924000296C036889B29847B8F1000FB4D1D9E707
:10925000EB6A1FFA83F9C9E7F0B5836993F8DC205C
:10926000012A8BB0054627D0023A012A2FD893F85D
:109270004C21D3F89C10174C62F07F030B70866969
:10928000D6F8A0305F1C0FCCEC46ACE80F00D6F847
:109290009C30CDE900370FCCACE80F0094E8030018
:1092A0008CE80300694606F110000EF069FDAB6919
:1092B00019690A6A002AFCD1D3F8A0305A8852BA38
:1092C000EA819A8852BA2A82DB885BBA6B820120D3
:1092D0000BB0F0BDF4360508F0B590F8DC30D0F8EE
:1092E000A060012B8BB004464BD034D9023B012B3C
:1092F0002ED890F84D31D0F89C20454D63F07F0377
:109300001370D0F8A0305F1C0FCDEC46ACE80F0016
:10931000D4F89C30CDE900370FCDACE80F0095E8CC
:1093200003008CE80300694604F110000EF028FDEC
:109330002269136A002BFCD173885BBAA4F8D03081
:10934000B3885BBAA4F8D230F3885BBAA4F8D430FF
:1093500001200BB0F0BDD0F89C304FF0FF321A6006
:109360005A609A60DA60D0F8E0300522B3F57A7F6F
:10937000C0F8F0201FD8032380F8DC3001200BB0A8
:10938000F0BD90F84C2190F84D319B1A5B100133E1
:10939000DBB206EB430236F813305BBAA0F8D030EC
:1093A00053885BBAA0F8D23093885BBAA0F8D43067
:1093B00001200BB0F0BD03691A7B2AB35B691BB3B4
:1093C00090F8983003B390F84C31D0F89C20C4F852
:1093D000A40063F07F03137090F84C1190F84D31A6
:1093E000D0F8A0200B48C4F804015B1A0733012110
:1093F000C4F8FC30D4F89C3084F800110A44C4E965
:109400003D3284F8DC10A3E7022384F8DC309FE7C8
:10941000F4360508018000080E4B002200B50260FA
:10942000828003F1120E13F9012CB3F800C002EB95
:109430004202063320F812C000EB420113F804CCBC
:1094400033F8032C8A80734581F802C0EBD15DF8B4
:1094500004FB00BF1D3705082DE9F0410546406AB1
:1094600094B0144600681F460E4647F083F90B94EB
:10947000254C0C9704F1CC030093244B0193022359
:10948000002202930123CDE909228DF80C308DF8DA
:1094900034308DF8483006922B7F8DF820200E92C4
:1094A0000F92109211921392194A049204F1C4027D
:1094B00005921A1D07921BB3330E84F8C530C634CB
:1094C000330CDFF850802370330A6370A670D8F82D
:1094D00078076C6A0EF0ECFB6B7FA08093B1694655
:1094E00020460EF04DFC6C6A206847F043F9D8F82E
:1094F0007C070EF0DDFBA080384614B0BDE8F0819B
:10950000C534DDE705A9EBE798010020042300201E
:109510006D8B0008901B00202DE9F0412E4F07EBCA
:10952000401898F89C340BB9BDE8F0818C2303FBFC
:1095300000730E4693F8822788F88224002104469F
:10954000450183F882170EF05BFBB0BB23483D4416
:1095500000EB4410A5F880640EF0B8F997F87B3062
:10956000D5F89824D5F8841493B1D2F8A03001240A
:109570008C4003F1C001420010F4004F90B202D1C0
:109580005A6822435A600C338B42F4D1BDE8F08113
:10959000D2F8A030012401F11002944003F1C0017F
:1095A000420010F4004F90B202D15A6822435A6030
:1095B0000C338B42F4D1BDE8F08197F8403C03EBCB
:1095C000430307EBC303234493F8ED6B002EBDD098
:1095D000012388F88234B9E7901B00201020002076
:1095E00010B5234C94F8412C94F8403C9A423AD15F
:1095F00094F8422C002A35D01E4B94F8430C02EB11
:10960000420203EBC20C40F20D3E10E099689C89C7
:109610004C600C6844F001040C60A2F848E09189A9
:10962000183389B241F48071634591811AD01A6868
:109630000028EBD1118821F080010904090C118068
:109640009988D162118889B241F0800111805062FD
:10965000998A9489214389B29181183323F8040CA3
:109660006345E4D110BD45F01DF80028C0D110BD00
:10967000901B0020D4270020F8B51D4D95F8412CF3
:1096800095F8403C9A422DD1EE6F002E11DD95F8F1
:109690007B7018480024013417B1037E012B1BD0C6
:1096A00002691368B44243F0010300F5807013604F
:1096B000F1D10FF0DDF9D5F8044D002C0BDD0E4A89
:1096C00002EBC404116893888889083203439BB273
:1096D000A2428B81F6D1F8BD002380F8F030FEF76E
:1096E00039FFDDE744F0DEFF0028CDD1F8BD00BF33
:1096F000901B0020101C0020982800202DE9F04F1E
:10970000037D02681F2B83B0044609D95068A3F17A
:1097100020052021A940014207D103B0BDE8F08F08
:109720001068202199400142F7D04849484D4968C6
:10973000A769C5F8281D8C2101FB075195F843CC7A
:10974000D1F888070668BCF1000F19D1D1F80008DC
:10975000B1F88CC7016821F001010160B18989B2BB
:1097600021EA0C01B18195F87B10C1B91F2B61D999
:10977000A3F1200120238B40D36003B0BDE8F08F1C
:109780004069016821F001010160B18921F4807113
:109790000904090CB18195F87B100029E6D04FF03F
:1097A0008C0808FB07F805EB08030193D3F800A821
:1097B000DFF8A0B0504640F09FFD019BD5F8302D5A
:1097C00008F118090121D94483F8D417002A38D0A8
:1097D00033889BB243F08003338008F174084FF064
:1097E000FF330BEB0801F362304641F00BF88C239A
:1097F00003FB0757494600235046C7F8A43740F0FB
:1098000011FED7F8003816225A601A6842F0010299
:109810001A60D7F88827B7F88C37126891890B43FC
:109820009BB293810949237D49682268C5F82C1DA4
:109830001F2B9DD8202101FA03F3936003B0BDE8EC
:10984000F08F0FF015F9C5F8300DC1E7001000E0FA
:10985000901B002010230020F8B51148114E4FF442
:10986000DC72002149F061FB0025A6F2944706F561
:10987000EC6456F82510002354F8332091420AD0A6
:1098800001330A2BF8D10020083543F065FFB5F508
:10989000EC7FEED1F8BD07EBC30393F8F80BF3E7C9
:1098A000C4280020303705082DE9F8430FF0E0F810
:1098B000204F214EFC6F05464FF00008002C2CDD98
:1098C00000231A4607EB0321013391F871119C42E2
:1098D00042EA0102F6D142EA08095FFA89F99046A4
:1098E0007368C3F30803ABB9EFF3118393B90FF0B7
:1098F0009BF8401BB0F5FA6F02DCB8F1000FDDD128
:10990000B9F1000F03D097F8EC3E532B09D048462D
:10991000BDE8F8830FF016F8EBE7C1464FF00008FA
:10992000DEE7B7F8F43E0133A7F8F43E4846BDE859
:10993000F88300BF901B002000ED00E02DE9F04F00
:10994000BE4C85B094F87B3003931BB9012005B061
:10995000BDE8F08FD4F8D8360293DFF8F0B2D4F82F
:10996000003F019304F6047904F590654FF0000A76
:10997000019B534540F3C5806B68AA699900D2E901
:109980003A3601F1085101EB4311AD4B06F180600D
:1099900093F8F431393801EB831301EB80109842CE
:1099A00040F23C811A68002A00F02E811A6C002ACD
:1099B00000F02C81D3F88020002A00F02981D3F810
:1099C000C02003F58073002AE9D194F8EC2E591ACF
:1099D000532A4FEAA11CC1F3871800F00A8198426C
:1099E00040F28380A6EB0C0145294FF0000628BF0A
:1099F0004521AC4603EB8111304615461F46B6465D
:109A00000DE01A6C002A40F09E80D3F88020002AD6
:109A100040F0C380D3F8C02003F580732AB999427F
:109A200006D91A68002AECD04033994200F28F80A0
:109A30007646112E2A46654640F2FD80CEF115038A
:109A4000002BC0F2F8807E4FA8F10A0187F8F411CC
:109A500008D000FA03F10120CEF1140300FA03F359
:109A600043EA01007749C0F3C43301EB83030F4697
:109A7000D3F8446C00F01F0301EB8303D3F8441CBC
:109A800041EA0631C0F34416C0F3842307EB86068F
:109A900007EB8303D6F8440CD3F8443C41EA0011A9
:109AA00041EA032181EA112383EA131303F00F0033
:109AB000634BD3F8F4300F2803F1010340F08880A2
:109AC000B1F5803F80F08480532A4FEA111120D0F5
:109AD0005B4AB1F5606FC2F8F43025D0ABF80C10DA
:109AE0000399029A48460EF051F80AF1010ABAF1B8
:109AF000080F09F15C0905F120050BF1140B7FF447
:109B000037AF4F4A0123012082F8F23105B0BDE89A
:109B1000F08FB4F8F02E0132A4F8F02E484AB1F5D7
:109B2000606FC2F8F430D9D194F8403C03EB4303A2
:109B300004EBC303534493F8ED3B0D2BCED18023AC
:109B40008BF81E30CCE7803399427FF671AFDE1B75
:109B50003D4AB611013682FB0672A2EBE672012A7B
:109B6000B8BF0122904001269644013A06FA02F25B
:109B700010431E46326892B1326C002A4AD0D6F8A1
:109B80008020002A48D0D6F8C02006F580763AB169
:109B9000B142EFD81F46334641E7C03345E7403670
:109BA000B142F7D9F21A9211274B013283FB0273AB
:109BB000A3EBE273012BB8BF012398409E4401221E
:109BC000013B02FA03F3184333461F46334626E7A8
:109BD000532A04D1B4F8F02E0132A4F8F02E184A1A
:109BE000C2F8F430D2F8F0300133C2F8F03000217E
:109BF00077E79842A4F8F68E3FF6F4AEB4F8F23E5A
:109C00000133A4F8F23E70E74033DEE68033DCE651
:109C1000C033DAE68036C3E7C036C1E794F8EC2EED
:109C2000591A532A4FEAA11CC1F387187FF4D7AE03
:109C3000A4F8F68EE2E7532AE0D056E7901B002006
:109C4000882C00209C32050856555555742D00204F
:109C500010B5044648F040FC81B22046BDE81040F3
:109C60005AE400BF38B50B4D00EB400005F5B86372
:109C700003EBC00393ED027AD3ED037AE7EE007AAB
:109C8000C4002544B0EE670A48F026FCD5F8C0357C
:109C9000186038BD901B00200A4608B5054920B958
:109CA000054840F05DFE034808BD044840F058FEFA
:109CB000004808BD802E002058AA050880AA050883
:109CC00010B5044C04480A46214640F049FE20469F
:109CD00010BD00BF802E0020A8AA050810B5044CB6
:109CE00004480A46214640F03BFE204610BD00BF16
:109CF000802E0020BCAA050810B5044C04480A4672
:109D0000214640F02DFE204610BD00BF802E0020D1
:109D1000C8AA050838B590F82830012B044606D0AB
:109D2000407F08B9012038BD0023637738BD406A01
:109D300003681A7B92B9637F002BF3D00A4D0B495D
:109D4000022305F53E720EF04DF895F8F932D8432E
:109D500003F0010300F001006377E7E71B6A002BC3
:109D6000E9D0002038BD00BF882C00206802002008
:109D700010B504462046FFF7CDFF0028FAD0012099
:109D800010BD00BFF0B511F0010583B00AD190F805
:109D90002860012E044607D0C368B3F1807F01D943
:109DA0000123037703B0F0BD0A4B476AD3F8780765
:109DB0000DF07EFFE368B880B3F1807FF2D9B72160
:109DC0008DF80410267733462A46384601A90EF04E
:109DD00009F8E7E7901B00202DE9F843DDF8208023
:109DE0000F4616460021202204461D4649F09DF8E4
:109DF000B8F1000F0CD0D8F80030E3811B0C23829F
:109E0000D8F80430B8F80A20E3821B0C628223835E
:109E1000384646F085FEF30619D4431EB8B107EB69
:109E2000000C01E0013B12D31CF801EDBEF12E0F36
:109E3000F8D1C01A421E032AA8BF0322082B03F13F
:109E40000109A8BF08239046B9441A4606E008282D
:109E50000246B946A8BF08224FF000084FF0203351
:109E6000394623606360204648F0E6FF04F10800AD
:109E7000154B238142464946837048F0DDFF611E41
:109E8000E21D11F801CFACF16103192B9CBFACF1BD
:109E9000200C81F800C09142F3D104F10A0011F8BE
:109EA000013FA3F16102192A9CBF203B0B7088423D
:109EB000F5D1182323732B0CA382E672099B6583CB
:109EC000E361BDE8F88300BF2020200008B541F021
:109ED0005BFB0C4B93F8811529220129A3F85A2327
:109EE000A3F8622301D0012008BD0748C3F8840508
:109EF00000F120014C3045F0EFFD044B002083F8C9
:109F0000230008BD882C00206C02002000ED00E03A
:109F10002DE9F04FDFF840B4DBF8D806CBF8DC06CB
:109F200085B0002B5ED013440C46154601F5FE7A31
:109F300098461FE0002D62D0DBF80C37AB4200F0F2
:109F4000C480DBF80837AB4200F0F680DBF810374E
:109F5000DBF81417AB4249D8A94200F26F81691AA5
:109F6000204643F013F90135454504F500740AF520
:109F7000007A37D0DBF81837AB42DBD8DBF828673C
:109F8000EB1A316BDA0802328A4203F0070902D376
:109F9000B36B9A420BD931461046039243F0C6F890
:109FA000039A0646002800F06981CBF82807337928
:109FB000002B40F01C81B76A002F00F05881336BF2
:109FC000D21AF36809EBC20203EB42222046334661
:109FD0004FF400710135B847454504F500740AF5A2
:109FE000007AC7D1002005B0BDE8F08FA942B6D9EC
:109FF0004FF400720021204648F097FFB3E74FF47A
:10A0000000722946204648F090FF802384F8BE3134
:10A010000C2384F8C231DBF80817C34ADBF8003799
:10A02000C4F8C6119142C4F8CA3100F30C81BF4A8A
:10A03000BF4E82FB010286FB01060A44C817C0EB33
:10A040006212C0EB2630BB4E84F8C10186FB02765B
:10A05000C2EB82178010C91B013120F03F0016446B
:10A060000843D117C1EBE6110A4484F8BF21AE4A78
:10A0700084F8C001013B934200F3F180AB4AAC4845
:10A0800082FB031280FB03101A44D917C1EB621242
:10A09000C1EB2031A74884F8C51180FB0260C2EBF8
:10A0A000821689109B1B013321F03F011044194394
:10A0B000D317C3EBE0131A4484F8C41184F8C32106
:10A0C0004AF65523A4F8FE314DE74FF0FF3384F8EC
:10A0D000EC3184F8ED3184F8EE3184F8EF31DBF8BF
:10A0E0002037C4F8E8315223237063706123A370D2
:10A0F00084F8E73141230026E37084F8E6317223C7
:10A1000084F8E43184F8E5314FF4F0723146201DD3
:10A1100048F00BFF552384F8FE316FF05503C4F867
:10A12000F061C4F8F461C4F8F86184F8FC6184F863
:10A13000FD6184F8FF3116E700214FF400722046DC
:10A1400048F0F3FE7C4B03CB45F6EB0323809023D2
:10A15000C4F80710A37002220821F823C4F80300F2
:10A16000617322746375DBF800372273A27384F87D
:10A170002C20DBF808279B1A2362DBF81027DBF87A
:10A1800014379B1A63620023E372E3736377A37748
:10A19000E37784F82D3084F82E3084F82F3084F85B
:10A1A0003130664BA361664BC4F842303E232377BF
:10A1B000012384F83030634A802384F8403084F8E7
:10A1C00046104AF65521A4F8FE1103CA5E4BC4F8A6
:10A1D0004700C4F84B1003CB1388A4F84F30937892
:10A1E000C4F85200C4F8561084F85130BBE64FF45E
:10A1F00000720021204648F098FEB9F1000F44D1CA
:10A20000336C04F12007002B76D0336B4F491122B9
:10A21000CDE900992046FFF7DFFD336C1A6C002A68
:10A2200079D01B6B4A49CDE9009938461122FFF7D6
:10A23000D3FD04F140074FF4E07368E0E91A2046CB
:10A2400042F0A4FF8FE6FF2284F8C1214FF6FF728F
:10A25000A4F8BF21344A013B93427FF70FAFFF239D
:10A2600084F8C5314FF6FF73A4F8C33128E73946A7
:10A270004FF40072204648F058FE74E6354A231F1A
:10A2800043F8042F9A45FBD16DE6D6E910264FEA34
:10A290000913002A3DD0023B002E3FF464AE013B7F
:10A2A000B66CF9D127464FF40073002E3FF45BAE35
:10A2B00007EB0309039508E00025CDE900C5FFF78A
:10A2C0008BFDB66CB6B14F4514D035793168336B20
:10A2D0003846112206F11C0C2037002DECD1727982
:10A2E000356942F02102CDE900C5FFF775FDB66C76
:10A2F000002EE8D1039D36E6CDE900994B46DBF808
:10A30000041708222046FFF767FD4FF4F073766CC0
:10A31000CBE7013BC0E7CDE900990D494B463846F4
:10A320001122FFF759FD84E7FF03FB008320088219
:10A330009755454181808080E0AA05083F00FF00D5
:10A3400029940E0DECAA0508F8AA0508D8AA050854
:10A35000DCAA0508DEADBEEF901B0020154B1649A8
:10A3600010B5044618681B79206284F82430152241
:10A3700004F1250048F09CFD104B93F8882501213D
:10A3800084F83A101AB9964684F83BE010BD03F2FF
:10A390008C5C8E46BCE80F0020606160A260E360C8
:10A3A000BCE80F0084F83BE020616161A261E361D9
:10A3B00010BD00BF04AB05080CAB0508882C0020BD
:10A3C00030B585B06D46044600232846022100932F
:10A3D000ADF8043004F060FF95E803004FF400721C
:10A3E000ADF80C10BDF80C30228041F2014540F26E
:10A3F00011220290A060A3816580E280012102A861
:10A4000004F04AFF0123E38105B030BD10B50021FF
:10A410003822044648F089FD0D490E4A0E48206155
:10A42000C4E905120D480E49E06101234FF0090C03
:10A4300040F20112C4F8261084F808C0A37384F80F
:10A440002130628521460748BDE810402AF0A8B9AE
:10A450001A046C07001975036400DC0543080E003C
:10A460001E1E1E7D20AB05082DE9F043002483B09D
:10A470000646048021463046013432F07BFA082C2F
:10A48000F8D10023DFF8608086F8EA30C6F8EC30B7
:10A49000C6F8F030C6F8F430C6F8F8309946FC3605
:10A4A0001F464A46414601A804F058FE344601A81A
:10A4B000032302E004F8011B5BB110F8011B1D46E9
:10A4C000013B0029F6D120462A46202148F02DFDE7
:10A4D0002C4409F10109B9F1080F277006F10406AF
:10A4E000DFD103B0BDE8F0832CAB050848B182880A
:10A4F0000449B2FA82F208684FF00043D3400343A4
:10A500000B607047003C0140274A92F8423C7BB305
:10A51000D2F8441C884237D0012B29D0D2F85C1CD9
:10A52000814235D0022B23D0D2F8741C884231D01E
:10A53000032B1DD0D2F88C1C88422DD0042B17D0B1
:10A54000D2F8A41C884229D0052B11D0D2F8BC1C0B
:10A55000884225D0062B0BD0D2F8D41C884221D0BB
:10A56000072B05D0D2F8EC1C814208BF07230CD082
:10A5700003EB430102EBC10103F1010CC1F8440CF0
:10A5800082F842CC184670470023DBB21846704769
:10A590000123FAE70223F8E70323F6E70423F4E7AD
:10A5A0000523F2E70623F0E7901B0020F8B52A4FB9
:10A5B0008C2505FB007595F88F3703B9F8BD044667
:10A5C0000E460DF01DFB38BB8C2505FB047523489A
:10A5D000A5F8806704EB8404C4EBC40400EB84009A
:10A5E0000DF074F91E4B97F8431CD3F8AC350246B6
:10A5F00009BB0121D5F808089847D5F80418B5F823
:10A600008C478A8AD5F8003822438A8258601A68B3
:10A6100042F001021A60F8BD97F8403C03EB430397
:10A6200007EBC303234493F8ED6B002ECCD001233A
:10A6300085F88237C8E7D5F88817D5F8040849792E
:10A64000006901F0FC01084404219847D5F804385A
:10A6500080009881F8BD00BF901B002010230020CF
:10A66000882C0020F8B5D0F880508668044628462B
:10A6700037683FF041FE002284F85420767938464E
:10A680003146FDF7C3FF04F16002FEF7BDF8082272
:10A690003146FDF7BBFF4023636204F118012846F1
:10A6A0003FF0C0FE2B6843F010032B60F8BD00BFE5
:10A6B0002DE9F04FDFF8A08198F87B3087B01BB907
:10A6C000012007B0BDE8F08FD8F8D83604930EF01B
:10A6D000CFF95F4A92F8E4350193002B00F0A58191
:10A6E000D8F8303DC31A08F5F06508F6047702F192
:10A6F000EC0B00264FF0010A99460DE02846FFF7C3
:10A70000B1FF019B01369E4205F18C0507F15C0704
:10A710000BF1140B00F0A280B9F1000F03DBAB6D5D
:10A720004B4500F36E818C2303FB068393F8D427FB
:10A7300002F0FF03002AE1D0AA68A8891168D5F8C1
:10A74000802054688A89A4B2C4F1160492B222EA25
:10A750000002072C8A81D1D93D49D1F8F420013279
:10A76000C1F8F420D5F888100591002208688E46BB
:10A77000CDE902369446012114E0BCF1140F1DDC32
:10A7800013F1080648BF03F1170633110CEB261C22
:10A790005E1E013102FA03F30AFA06F68C4246EA1B
:10A7A00003020BD303465EF8040F8C42A0EB0303B5
:10A7B000E3D8CCF115034FF0150CE9E7BCF1150F08
:10A7C000DDE9023638D1234CC2F38421C2F34410B0
:10A7D00004EB810104EB8000D1F8C41CD0F8C40C58
:10A7E000090241EA001102F01F0004EB8000C2F3ED
:10A7F000C43204EB8202D0F8C40CD2F8C42C01435A
:10A8000041EA023181EA112282EA121202F00F02B9
:10A810000F2A11D1C1F30F114FF6FF7291420BD0E5
:10A82000B1F5606F00F0F180ABF80C10049A194696
:10A8300038460DF0ABF961E7054AD2F8F030013344
:10A84000C2F8F030002E00F0D6800023EEE700BF03
:10A85000882C00209C320508901B0020774AD8F8ED
:10A860008817012382F8F23100224879C8F8302D88
:10A870000A6898F89017890748BF0423118C834011
:10A880009BB289B221EA03011184118C89B20B4376
:10A890001384019B012B3FF413AFD8F814281368DD
:10A8A000517998F81C28970754BF012204228A4046
:10A8B000198C92B289B221EA02011984198C89B2E9
:10A8C0000A431A84019B022B3FF4FAAED8F8A02861
:10A8D0001368517998F8A828960754BF01220422DA
:10A8E0008A40198C92B289B221EA02011984198C2A
:10A8F00089B20A431A84019B032B3FF4E1AED8F8D6
:10A900002C291368517998F83429950754BF0122EE
:10A9100004228A40198C92B289B221EA0201198478
:10A92000198C89B20A431A84019B042B3FF4C8AEE8
:10A93000D8F8B8291368517998F8C029940754BFFA
:10A94000012204228A40198C92B289B221EA0201C2
:10A950001984198C89B20A431A84019B052B3FF490
:10A96000AFAED8F8442A1368517998F84C2A90076A
:10A9700054BF012204228A40198C92B289B221EA82
:10A9800002011984198C89B20A431A84019B062B8F
:10A990003FF496AED8F8D02A1368517998F8D82A9F
:10A9A000920754BF012204228A40198C92B289B2C4
:10A9B00021EA02011984198C89B20A431A84019B85
:10A9C000082B7FF47DAED8F85C2B98F8641B1368D5
:10A9D000507911F0020F18BF0422198C08BF012210
:10A9E000824092B289B221EA02011984198C89B29B
:10A9F0000A431A8464E605991148582248F01CFA63
:10AA000023E7002007B0BDE8F08F98F8402C02EB58
:10AA1000420208EBC202324492F8ED2B0D2A7FF479
:10AA200003AF80228BF81E2000E7044A012382F83E
:10AA3000F231019BC8F8303D42E600BF882C00206F
:10AA4000202E002043680B4A23F0407323F48073C8
:10AA500043F48073436083681A4042F002028260CC
:10AA6000C36A0139C9B223F4700343EA0153C362D4
:10AA7000704700BFFDF7FFC0704700BF0020FDF723
:10AA8000D1BA00BF0120FDF7CDBA00BF0220FDF70B
:10AA9000C9BA00BF10B1036882881A83704700BF2B
:10AAA00010B1036882885A83704700BF10B40469EC
:10AAB0008269E468416814604024D46044690023DA
:10AAC0000C3193639360136153619361D36113629B
:10AAD00053629362D36213635363516084B1C2695A
:10AAE0009360D360136153619361D36113625362C6
:10AAF0009362D36213635363E0689363C2E9000116
:10AB00005DF8044B704700BFD0E9001300221A60C3
:10AB1000037D1F2B07D9203B202202FA03F343F0C9
:10AB20001803CB607047202202FA03F343F01803A6
:10AB30008B607047F8B50468D4E904235568117D2B
:10AB40001768002B40D01F295E6898612CD82022FE
:10AB50008A4042F01802BA601A7D19681F2A2DD95E
:10AB6000203A2023934043F01803CB6000232B604E
:10AB700033603368A16943F01003336028463FF027
:10AB800051FCE16930463FF04DFC2B68626843F0B0
:10AB900001032B60336843F00103336093889BB259
:10ABA00043F003039380F8BD203920228A4042F00D
:10ABB0001802FA601A7D19681F2AD1D82023934001
:10ABC00043F018038B60D1E71F29906119D8202327
:10ABD0008B4043F01803BB6000232B602B68A169F6
:10ABE00043F010032B6028463FF01CFC2B68626882
:10ABF00043F001032B6093889BB243F002039380E0
:10AC0000F8BD203920238B4043F01803FB60E3E7B5
:10AC10002DE9F047794E07464FF0010A3C6897F856
:10AC200088806368B8881A8884F824A022F04002DB
:10AC30001204120C1A802289824216D0B0F5807F4D
:10AC40000146A8BF4FF4807102291A88B8BF0221BB
:10AC500091FAA1F192B2B1FA81F122F038020139F0
:10AC600042EAC10292B21A802081397BA27A8A42DA
:10AC70000CD01A8822F003021204120C1A801A88CF
:10AC800092B2002900F095801A80A1721A8894F877
:10AC90000C9092B242F040021A80226A9168002918
:10ACA00000F0A2804FF0000C1432E64652F8100C6F
:10ACB0008E4400EA060120B1B1F1805F25D06169C0
:10ACC00019B352F8141C143201EA060011B1B0F1A4
:10ACD000805F1AD052F80C1C0CF1010C0029E5D150
:10ACE000B9F1000F11D0B8F1000F0ED0BCF1010F77
:10ACF0006DD8BEF1070F6AD80CEB8C0C4FEA8C01B3
:10AD0000226A0A44127B002A61D0226A92684FF0BC
:10AD10000008002A50D0B8F1000F02D098F80C209B
:10AD200022B1BA6812B1116892884A83226A156802
:10AD3000226A5168226A9268501E9AB12DB32A463F
:10AD400012F801EB15461A899207FCD5A3F80CE01E
:10AD50001A89D207FCD59A8992B209B101F8012B60
:10AD60000138EBD2236A1B7BE3B9236A1B697BB1F1
:10AD7000236AD7F894001B69984701280DD0022850
:10AD800006D100232362BDE8F0874FF0FF0EDAE71B
:10AD9000D4F82080236A14332362236A9B685BB152
:10ADA0006368B8E7BB68002BDFD01A689B88138301
:10ADB000DBE742F0030267E7236A1B68DBB1236A23
:10ADC000D3E90072226200221A605A6026E73868CE
:10ADD000002145F041FEBB6813B11A689B8853837C
:10ADE0003846BDE8F047A5E6B9F1000F8DD0B8F1BF
:10ADF000000F85D189E72362C5E700BF0000FFFF90
:10AE000010B40C4C002304F2EC5C01E0152B0CD0C8
:10AE100003EB430201331CF802108142F6D11444C3
:10AE200094F9EE055DF8044B70474FF0FF305DF884
:10AE3000044B7047882C002070B502EB4202114C85
:10AE40004FEA820E23460EF10805002204E001328B
:10AE5000172A03F11C0312D093F800C08445F6D1E1
:10AE600093F801C08C45F2D15E59002EEFD0C2EBB1
:10AE7000C2020EF1040303EB8203E01870BD002050
:10AE800070BD00BFE03F050870B502EB4202104CF8
:10AE90004FEA820E23460EF10C05002204E0013237
:10AEA000172A03F12C0310D01E688642F7D193F8BD
:10AEB00004C08C45F3D15E59002EF0D02C210EF148
:10AEC000080301FB0233E01870BD002070BD00BF15
:10AED0009C320508F0B110B504460F4894F804E020
:10AEE000002300F2EC5C01E0152B11D003EB4302D0
:10AEF00001331CF802107145F6D18318617993F97A
:10AF0000EE252068D3B2022B02D8BDE81040BBE783
:10AF1000002010BD00207047882C00200348D0F886
:10AF20004C3113B100F59E7018477047980100200E
:10AF30000348D0F8703113B100F5B070184770476E
:10AF4000980100200348D0F8943113B100F5C27085
:10AF500018477047980100200348D0F8B83113B162
:10AF600000F5D47018477047980100200348D0F8C6
:10AF7000DC3113B100F5E6701847704798010020E6
:10AF80000348D0F8003213B100F5F8701847704745
:10AF9000980100200348D0F8243213B100F5057061
:10AFA00018477047980100200348D0F8483213B181
:10AFB00000F50E7018477047980100200348D0F83C
:10AFC0006C3213B100F517701847704798010020D4
:10AFD0000348D0F8903213B100F52070184770473D
:10AFE000980100200348D0F8B43213B100F529705D
:10AFF00018477047980100200348D0F8D83213B1A1
:10B0000000F5327018477047980100200348D0F8C7
:10B01000FC3213B100F53B701847704798010020CF
:10B020000348D0F8203313B100F544701847704737
:10B03000980100200348D0F8443313B100F54D7057
:10B0400018477047980100200348D0F8683313B1BF
:10B0500000F556701847704798010020094B0A4ABE
:10B06000013800EBC00003EB80030848D3F83C3103
:10B07000116B834214BF4FF480034FF400130B4352
:10B0800013637047980100200038024000600240BE
:10B0900070B501383C4C3D4D00EBC00C04EB8C0C02
:10B0A0009646DCF83C613A4AAE4214BF4FF4800544
:10B0B0004FF40015166B35431563CCF84C11CCF8E2
:10B0C00054313449DCF840318B424FEAC0023ED063
:10B0D00001F580618B423AD0A1F57A718B4247D05D
:10B0E00001F580618B4243D0A1F57A718B4241D04A
:10B0F00001F580618B423DD0A1F57A718B4235D04C
:10B1000001F580618B4231D0A1F57A718B4233D049
:10B1100001F580618B422FD0A1F57A718B422DD041
:10B1200001F580618B4229D0A1F57A718B4227D03D
:10B1300001F580618B4223D0A1F57A718B4221D039
:10B14000154D01F580618B4218BF002500E0134DBD
:10B15000131804EB8303CEF38711C3F85C5193F803
:10B160005101BDE87040002243F03CBD0C4DEFE7BB
:10B170000C4DEDE70C4DEBE70C4DE9E70C4DE7E727
:10B180000C4DE5E7044DE3E7980100200060024024
:10B19000003802401060024000800028208000102B
:10B1A00000800018008800100080201020800020FF
:10B1B000008800200080202058B18088054AB0FA1D
:10B1C00080F011684FF00043C34021EA0301116091
:10B1D00053617047003C01400120FDF7C1BF00BF33
:10B1E0000220FDF7BDBF00BF0420FDF7B9BF00BFBF
:10B1F0000820FDF7B5BF00BF1020FDF7B1BF00BFAD
:10B200004FF47870FDF7ACBF4FF47C40FDF7A8BF5A
:10B2100030B50C4683B0054620B3036803F13F43C5
:10B2200003F57E039B0A114A134493F8C80F42F0BA
:10B2300093FA0023A20864F3070362F30F232209A1
:10B2400062F31743640964F31F63AA88286803F054
:10B25000033323F400336946CDE900233EF0B6FF03
:10B2600003B030BD4FF0FF33DDE700BF9C3205086F
:10B2700000B1CDE7704700BF2DE9F041304B0361CD
:10B280000D46044623200EF09DF96B783BB12369EF
:10B2900002221A7095F80380B8F1000F03D100263E
:10B2A0003046BDE8F08104F11007A97838460CF06B
:10B2B00029FD06460028F2D040460DF03DF8A06179
:10B2C0002B7801338046DBB210B1C3712223837126
:10B2D00040460921FFF7CCFF4046FFF7DBFB194A48
:10B2E000D2F8D836632BFBD91748DFF868800CF00A
:10B2F000DFFC164BA08202E058F8043F93B13846B9
:10B3000098470028F8D0236984F8D8001B78012BCF
:10B310000ED0022BC4D10E4A92F85436013382F873
:10B320005436BDE7E8780DF007F80DF065F8B6E79C
:10B33000074A92F85536013382F85536B0E700BF18
:10B34000B4320020901B002040420F0071470408D7
:10B35000882C00206C4205080B4B10B5D3F8D4366E
:10B3600003440446187E0CF0E7FF60B12E22827180
:10B37000621CC2710121FFF77BFF20460021BDE85E
:10B380001040FDF759BC10BD901B00202DE9F04185
:10B39000044690F8210182B010B902B0BDE8F081F6
:10B3A0000CF0CAFF064600284ED08588284B26227E
:10B3B000C280B5FA85F544F80C3F264BC5F11F084D
:10B3C000434493F8E47F244B03EB8803C3F83447EA
:10B3D000FFF7F2FE00213046FFF71AFF306800F158
:10B3E0003F4000F57E005FFA88F1C0F387203FF010
:10B3F000BBF84FF000444FF40063ADF8043024FA7A
:10B4000005F5012368468DF80630009543F0B6FB3C
:10B41000124B3B4493F85826F02A06D8104A13687A
:10B420002B43136002B0BDE8F081F02283F8582668
:10B430000C4B0022D85D032143F0D4FBB588B5FA4C
:10B4400085F524FA05F5E9E7014BE360A5E700BFC0
:10B45000518F00089C320508901B0020882C00208A
:10B46000003C0140C0AB050870B50E4CD4F8006F2D
:10B47000002E15DD04F59064002503E0B54204F1CB
:10B4800020040DD0237F0135002BF7D0E068002881
:10B49000F4D0217DFFF7BCFEB54204F12004F1D1C8
:10B4A000012070BD901B0020F0B5064683B0002837
:10B4B0003CD00768214B154607F13F4202F57E025A
:10B4C00003EB92230C4693F8C80F42F045F9B3887A
:10B4D0000093B3FA83F3C3F11F03C3F3CC0207EB6A
:10B4E000820203F00703116A9B000F269D4006FAB3
:10B4F00003F321EA03031362136A1D430023156259
:10B5000064F30703A20862F30F23220962F31743CF
:10B51000640964F31F6303F0033323F400333846F4
:10B52000694601933EF052FE03B0F0BD034B93F821
:10B53000C70F42F011F93368FFDE00BF9C320508E7
:10B5400000B1B1E7704700BF2DE9F047684F07EB46
:10B550000013D3F86046002C76D093F86866054651
:10B560004FEA0018304642F0F7F806F01F0276095D
:10B570000123032E03FA02F37DD0042E6BD0022E9A
:10B5800064D007EB0803013593F864060CF0D4FE91
:10B59000EDB2824610B11223C571837107EB080327
:10B5A00093F865060CF0C8FE814610B11323C571EF
:10B5B000837107EB080393F866060CF0BDFE0646A0
:10B5C00010B11423C571837107EB0803504693F83B
:10B5D00067564A212A46FFF7B3FF2A4648462A21E2
:10B5E000FFF7AEFF2A460A213046FFF7A9FF414B7D
:10B5F0009C4245D0404B9C4232D0404B9C424AD06A
:10B600003F4B9C4252D03F4B9C425AD03E4B9C42B7
:10B6100062D0A38823F003031B041B0CA3802388A0
:10B6200003F4415343F4457343F003032380A38B96
:10B6300023F400631B041B0C0722A38322822388AC
:10B640009BB243F040032380BDE8F0872F4A516A44
:10B650000B43536295E72D4A11690B43136190E741
:10B6600003F500331A6A42F480421A621A6A22F41D
:10B6700080421A62CDE7254A116A0B43136280E7C4
:10B6800003F584335A6A42F480525A625A6A22F4A9
:10B6900080525A62BDE703F5FE331A6A42F4004253
:10B6A0001A621A6A22F400421A62B2E703F5823380
:10B6B0005A6A42F400525A625A6A22F400525A629A
:10B6C000A7E703F568435A6A42F480125A625A6A3D
:10B6D00022F480125A629CE703F564435A6A42F4EA
:10B6E00000125A625A6A22F400125A6291E700BFAD
:10B6F000882C00200030014000380040003C004011
